{
  "contractName": "restaurantReviewer",
  "abi": [
    {
      "anonymous": false,
      "inputs": [
        {
          "indexed": false,
          "internalType": "bytes20",
          "name": "name",
          "type": "bytes20"
        },
        {
          "indexed": false,
          "internalType": "uint256",
          "name": "rNo",
          "type": "uint256"
        }
      ],
      "name": "reviewSubmitted",
      "type": "event"
    },
    {
      "anonymous": false,
      "inputs": [
        {
          "indexed": false,
          "internalType": "uint256",
          "name": "rNo",
          "type": "uint256"
        },
        {
          "indexed": false,
          "internalType": "uint256",
          "name": "_value",
          "type": "uint256"
        }
      ],
      "name": "tipSent",
      "type": "event"
    },
    {
      "inputs": [],
      "name": "reviewCount",
      "outputs": [
        {
          "internalType": "uint256",
          "name": "",
          "type": "uint256"
        }
      ],
      "stateMutability": "view",
      "type": "function"
    },
    {
      "inputs": [
        {
          "internalType": "uint256",
          "name": "",
          "type": "uint256"
        }
      ],
      "name": "reviews",
      "outputs": [
        {
          "internalType": "uint256",
          "name": "id",
          "type": "uint256"
        },
        {
          "internalType": "uint8",
          "name": "rating",
          "type": "uint8"
        },
        {
          "internalType": "uint256",
          "name": "tipCount",
          "type": "uint256"
        },
        {
          "internalType": "bytes20",
          "name": "restaurantName",
          "type": "bytes20"
        },
        {
          "internalType": "bytes20",
          "name": "cuisineType",
          "type": "bytes20"
        },
        {
          "internalType": "string",
          "name": "reviewBody",
          "type": "string"
        },
        {
          "internalType": "string",
          "name": "ipfsHash",
          "type": "string"
        },
        {
          "internalType": "address payable",
          "name": "author",
          "type": "address"
        },
        {
          "internalType": "uint256",
          "name": "reviewDate",
          "type": "uint256"
        }
      ],
      "stateMutability": "view",
      "type": "function"
    },
    {
      "inputs": [
        {
          "internalType": "uint8",
          "name": "_rating",
          "type": "uint8"
        },
        {
          "internalType": "bytes20",
          "name": "_restaurantName",
          "type": "bytes20"
        },
        {
          "internalType": "bytes20",
          "name": "_cuisineType",
          "type": "bytes20"
        },
        {
          "internalType": "string",
          "name": "_reviewBody",
          "type": "string"
        },
        {
          "internalType": "string",
          "name": "_ipfsHash",
          "type": "string"
        }
      ],
      "name": "addReview",
      "outputs": [],
      "stateMutability": "nonpayable",
      "type": "function"
    },
    {
      "inputs": [
        {
          "internalType": "uint256",
          "name": "_id",
          "type": "uint256"
        }
      ],
      "name": "tipReview",
      "outputs": [],
      "stateMutability": "payable",
      "type": "function"
    }
  ],
  "bytecode": "0x60806040526000805534801561001457600080fd5b50611364806100246000396000f3fe60806040526004361061003f5760003560e01c806322f1f94b14610044578063603188a514610060578063e83ddcea14610089578063eff5924f146100ce575b600080fd5b61005e60048036038101906100599190610bcd565b6100f9565b005b34801561006c57600080fd5b5061008760048036038101906100829190610bf6565b6105e7565b005b34801561009557600080fd5b506100b060048036038101906100ab9190610bcd565b6108d8565b6040516100c599989796959493929190610fab565b60405180910390f35b3480156100da57600080fd5b506100e3610a7d565b6040516100f09190610f67565b60405180910390f35b60008111801561010b57506000548111155b61014a576040517f08c379a000000000000000000000000000000000000000000000000000000000815260040161014190610f07565b60405180910390fd5b60006001600083815260200190815260200160002060405180610120016040529081600082015481526020016001820160009054906101000a900460ff1660ff1660ff168152602001600282015481526020016003820160009054906101000a900460601b6bffffffffffffffffffffffff19166bffffffffffffffffffffffff191681526020016004820160009054906101000a900460601b6bffffffffffffffffffffffff19166bffffffffffffffffffffffff19168152602001600582018054610216906111d0565b80601f0160208091040260200160405190810160405280929190818152602001828054610242906111d0565b801561028f5780601f106102645761010080835404028352916020019161028f565b820191906000526020600020905b81548152906001019060200180831161027257829003601f168201915b505050505081526020016006820180546102a8906111d0565b80601f01602080910402602001604051908101604052809291908181526020018280546102d4906111d0565b80156103215780601f106102f657610100808354040283529160200191610321565b820191906000526020600020905b81548152906001019060200180831161030457829003601f168201915b505050505081526020016007820160009054906101000a900473ffffffffffffffffffffffffffffffffffffffff1673ffffffffffffffffffffffffffffffffffffffff1673ffffffffffffffffffffffffffffffffffffffff168152602001600882015481525050905060008160e0015190503373ffffffffffffffffffffffffffffffffffffffff168260e0015173ffffffffffffffffffffffffffffffffffffffff161415610408576040517f08c379a00000000000000000000000000000000000000000000000000000000081526004016103ff90610ec7565b60405180910390fd5b8073ffffffffffffffffffffffffffffffffffffffff166108fc349081150290604051600060405180830381858888f1935050505015801561044e573d6000803e3d6000fd5b506001826040015161046091906110c3565b82604001818152505081600160008581526020019081526020016000206000820151816000015560208201518160010160006101000a81548160ff021916908360ff1602179055506040820151816002015560608201518160030160006101000a81548173ffffffffffffffffffffffffffffffffffffffff021916908360601c021790555060808201518160040160006101000a81548173ffffffffffffffffffffffffffffffffffffffff021916908360601c021790555060a0820151816005019080519060200190610536929190610a83565b5060c0820151816006019080519060200190610553929190610a83565b5060e08201518160070160006101000a81548173ffffffffffffffffffffffffffffffffffffffff021916908373ffffffffffffffffffffffffffffffffffffffff16021790555061010082015181600801559050507f22f2142ae5f92be1cacfe6946c7833c25d07a9730d3329991b7a7115f1aa969c83346040516105da929190610f82565b60405180910390a1505050565b6000846bffffffffffffffffffffffff1916141561063a576040517f08c379a000000000000000000000000000000000000000000000000000000000815260040161063190610f27565b60405180910390fd5b600082511161067e576040517f08c379a000000000000000000000000000000000000000000000000000000000815260040161067590610ee7565b60405180910390fd5b60058560ff1611156106c5576040517f08c379a00000000000000000000000000000000000000000000000000000000081526004016106bc90610f47565b60405180910390fd5b6000808154809291906106d790611202565b919050555060405180610120016040528060005481526020018660ff16815260200160008152602001856bffffffffffffffffffffffff19168152602001846bffffffffffffffffffffffff191681526020018381526020018281526020013373ffffffffffffffffffffffffffffffffffffffff1681526020014281525060016000805481526020019081526020016000206000820151816000015560208201518160010160006101000a81548160ff021916908360ff1602179055506040820151816002015560608201518160030160006101000a81548173ffffffffffffffffffffffffffffffffffffffff021916908360601c021790555060808201518160040160006101000a81548173ffffffffffffffffffffffffffffffffffffffff021916908360601c021790555060a0820151816005019080519060200190610823929190610a83565b5060c0820151816006019080519060200190610840929190610a83565b5060e08201518160070160006101000a81548173ffffffffffffffffffffffffffffffffffffffff021916908373ffffffffffffffffffffffffffffffffffffffff16021790555061010082015181600801559050507f53ef749bb27d0889d74a18588705f941382266381b94d7d51341514f064dc852846000546040516108c9929190610e9e565b60405180910390a15050505050565b60016020528060005260406000206000915090508060000154908060010160009054906101000a900460ff16908060020154908060030160009054906101000a900460601b908060040160009054906101000a900460601b90806005018054610940906111d0565b80601f016020809104026020016040519081016040528092919081815260200182805461096c906111d0565b80156109b95780601f1061098e576101008083540402835291602001916109b9565b820191906000526020600020905b81548152906001019060200180831161099c57829003601f168201915b5050505050908060060180546109ce906111d0565b80601f01602080910402602001604051908101604052809291908181526020018280546109fa906111d0565b8015610a475780601f10610a1c57610100808354040283529160200191610a47565b820191906000526020600020905b815481529060010190602001808311610a2a57829003601f168201915b5050505050908060070160009054906101000a900473ffffffffffffffffffffffffffffffffffffffff16908060080154905089565b60005481565b828054610a8f906111d0565b90600052602060002090601f016020900481019282610ab15760008555610af8565b82601f10610aca57805160ff1916838001178555610af8565b82800160010185558215610af8579182015b82811115610af7578251825591602001919060010190610adc565b5b509050610b059190610b09565b5090565b5b80821115610b22576000816000905550600101610b0a565b5090565b6000610b39610b3484611077565b611046565b905082815260208101848484011115610b5157600080fd5b610b5c84828561118e565b509392505050565b600081359050610b73816112e9565b92915050565b600082601f830112610b8a57600080fd5b8135610b9a848260208601610b26565b91505092915050565b600081359050610bb281611300565b92915050565b600081359050610bc781611317565b92915050565b600060208284031215610bdf57600080fd5b6000610bed84828501610ba3565b91505092915050565b600080600080600060a08688031215610c0e57600080fd5b6000610c1c88828901610bb8565b9550506020610c2d88828901610b64565b9450506040610c3e88828901610b64565b935050606086013567ffffffffffffffff811115610c5b57600080fd5b610c6788828901610b79565b925050608086013567ffffffffffffffff811115610c8457600080fd5b610c9088828901610b79565b9150509295509295909350565b610ca681611119565b82525050565b610cb58161112b565b82525050565b6000610cc6826110a7565b610cd081856110b2565b9350610ce081856020860161119d565b610ce9816112d8565b840191505092915050565b6000610d01602a836110b2565b91507f596f752063616e6e6f742074697020796f757273656c662066726f6d2074686960008301527f7320616464726573732e000000000000000000000000000000000000000000006020830152604082019050919050565b6000610d67601a836110b2565b91507f596f75206d7573742070726f766964652061207265766965772e0000000000006000830152602082019050919050565b6000610da76012836110b2565b91507f496e76616c6964207265766965772049442e00000000000000000000000000006000830152602082019050919050565b6000610de76023836110b2565b91507f412072657374617572616e74206e616d65206d7573742062652070726f76696460008301527f65642e00000000000000000000000000000000000000000000000000000000006020830152604082019050919050565b6000610e4d601d836110b2565b91507f526174696e672063616e6e6f74206265206d6f7265207468616e20352e0000006000830152602082019050919050565b610e8981611177565b82525050565b610e9881611181565b82525050565b6000604082019050610eb36000830185610cac565b610ec06020830184610e80565b9392505050565b60006020820190508181036000830152610ee081610cf4565b9050919050565b60006020820190508181036000830152610f0081610d5a565b9050919050565b60006020820190508181036000830152610f2081610d9a565b9050919050565b60006020820190508181036000830152610f4081610dda565b9050919050565b60006020820190508181036000830152610f6081610e40565b9050919050565b6000602082019050610f7c6000830184610e80565b92915050565b6000604082019050610f976000830185610e80565b610fa46020830184610e80565b9392505050565b600061012082019050610fc1600083018c610e80565b610fce602083018b610e8f565b610fdb604083018a610e80565b610fe86060830189610cac565b610ff56080830188610cac565b81810360a08301526110078187610cbb565b905081810360c083015261101b8186610cbb565b905061102a60e0830185610c9d565b611038610100830184610e80565b9a9950505050505050505050565b6000604051905081810181811067ffffffffffffffff8211171561106d5761106c6112a9565b5b8060405250919050565b600067ffffffffffffffff821115611092576110916112a9565b5b601f19601f8301169050602081019050919050565b600081519050919050565b600082825260208201905092915050565b60006110ce82611177565b91506110d983611177565b9250827fffffffffffffffffffffffffffffffffffffffffffffffffffffffffffffffff0382111561110e5761110d61124b565b5b828201905092915050565b600061112482611157565b9050919050565b60007fffffffffffffffffffffffffffffffffffffffff00000000000000000000000082169050919050565b600073ffffffffffffffffffffffffffffffffffffffff82169050919050565b6000819050919050565b600060ff82169050919050565b82818337600083830152505050565b60005b838110156111bb5780820151818401526020810190506111a0565b838111156111ca576000848401525b50505050565b600060028204905060018216806111e857607f821691505b602082108114156111fc576111fb61127a565b5b50919050565b600061120d82611177565b91507fffffffffffffffffffffffffffffffffffffffffffffffffffffffffffffffff8214156112405761123f61124b565b5b600182019050919050565b7f4e487b7100000000000000000000000000000000000000000000000000000000600052601160045260246000fd5b7f4e487b7100000000000000000000000000000000000000000000000000000000600052602260045260246000fd5b7f4e487b7100000000000000000000000000000000000000000000000000000000600052604160045260246000fd5b6000601f19601f8301169050919050565b6112f28161112b565b81146112fd57600080fd5b50565b61130981611177565b811461131457600080fd5b50565b61132081611181565b811461132b57600080fd5b5056fea2646970667358221220fb23ef20b8d9a03c44cf4a18ebbb2d3d4a2c60e9da717e584b9da5198b91da7864736f6c63430008000033",
  "immutableReferences": {},
  "source": "pragma solidity ^0.8.0;\r\n\r\ncontract restaurantReviewer {\r\n    \r\n    uint public reviewCount = 0;\r\n    \r\n    mapping (uint => Review) public reviews;\r\n    \r\n    struct Review {\r\n        uint id;\r\n        uint8 rating;\r\n        uint tipCount;\r\n        bytes20 restaurantName;\r\n        bytes20 cuisineType;\r\n        string reviewBody;\r\n        string ipfsHash;\r\n        address payable author;\r\n        uint256 reviewDate;\r\n    }\r\n    \r\n    event reviewSubmitted(\r\n        bytes20 name,\r\n        uint rNo\r\n        );\r\n        \r\n    event tipSent(\r\n        uint rNo,\r\n        uint _value\r\n        );\r\n    \r\n    function addReview(uint8 _rating, bytes20 _restaurantName, bytes20 _cuisineType, string memory _reviewBody,\r\n                       string memory _ipfsHash) public {\r\n        // restaurant name and review body must exist\r\n        // _rating cannot be bigger than 5 (5 star rating system)\r\n        require(_restaurantName != \"\", \"A restaurant name must be provided.\");\r\n        require(bytes(_reviewBody).length > 0, \"You must provide a review.\");\r\n        require(_rating <= 5, \"Rating cannot be more than 5.\");\r\n        \r\n        reviewCount++;\r\n        reviews[reviewCount] = Review(reviewCount, _rating, 0, _restaurantName, _cuisineType, _reviewBody, _ipfsHash,\r\n                                      payable(msg.sender), block.timestamp);\r\n        \r\n        emit reviewSubmitted(_restaurantName, reviewCount);\r\n    }\r\n    \r\n    function tipReview(uint _id) public payable {\r\n        require(_id > 0 && _id <= reviewCount, \"Invalid review ID.\");\r\n        \r\n        Review memory _review = reviews[_id];\r\n        address payable _author = _review.author;\r\n        \r\n        // cannot tip oneself from the same address used to create review\r\n        require(_review.author != msg.sender, \"You cannot tip yourself from this address.\");\r\n        payable(_author).transfer(msg.value);\r\n        _review.tipCount = _review.tipCount + 1;\r\n        reviews[_id] = _review;\r\n        \r\n        emit tipSent(_id, msg.value);\r\n    }\r\n}",
  "sourcePath": "C:/Users/Samuel/web3projects/restaurant-review-dapp/contracts/RestaurantReviewer.sol",
  "compiler": {
    "name": "solc",
    "version": "0.8.0+commit.c7dfd78e.Emscripten.clang"
  },
  "schemaVersion": "3.4.1",
  "updatedAt": "2021-06-11T16:07:53.033Z",
  "devdoc": {
    "kind": "dev",
    "methods": {},
    "version": 1
  },
  "userdoc": {
    "kind": "user",
    "methods": {},
    "version": 1
  }
}